:020000040000FA
:0600000024EF0BF01200DA
:020006001200E6
:0600080058EF00F01200A9
:02000E000F01E0
:04001000546B12001B
:020014000100E9
:060018001CEF00F01200D5
:02001E000200DE
:100020006A160000000F00001B0000001400000012
:08003000250F00000200000092
:08003800DACFE4FFE6529EA2BC
:1000400033D09E92B80EBC6E8B8E0F01162B1651BC
:100050001AE18A680F51D880035502E20FCF03FFDF
:100060001051D880005502E210CF00FF1151D88006
:10007000015502E211CF00FF1251D880025513E260
:1000800012CF02FF10D00351165D01E38A9A00518E
:10009000165D01E38A980151165D01E38A9E0251C3
:1000A000165D01E38A9C8B9EE552E5CFDAFF1100D5
:1000B000DACFE4FFE2CFDAFFE9CFE4FFEACFE4FFF3
:1000C000F6CFE4FFF7CFE4FFF8CFE4FFF5CFE4FF8E
:1000D000F3CFE4FFF4CFE4FFFACFE4FFFBCFE4FF7C
:1000E00000EE00F0140EE80403E3EECFE4FFFBD7CC
:1000F00000EE14F00C0EE80403E3EECFE4FFFBD7B0
:10010000E652F2A430D00F0145B316D044910F014E
:10011000146B010E156FB3380F0B0F0B0001A56F99
:10012000E8501F0BF36EF346F346830EC214F31030
:10013000C26EC280C28216D045930F01010E146FA9
:10014000156F00019CEC08F0830EE926000EEA22F0
:10015000EECFE6FFEFCFE6FFC1EC0AF0E552E55245
:100160000F014481F2949EAC4FD09E9CC3CFA3F06C
:10017000C4CFA4F0A3C020F0A4C021F0030ED890F7
:1001800021322032E804FBE1FF0E00012014A36FAE
:10019000A46B206E216A20BE21687AEC08F0225000
:1001A000205C2350215805E2010E816F826B8B98F1
:1001B00013D0A3C020F0216A20BE21687AEC08F099
:1001C0001F0E2226000E23222050225C215023588D
:1001D00003E2816B826B8B88A539F00BF00BA411C5
:1001E000B36EA3C0B2FF0F01010E136F156B0F01A9
:1001F000458F449144934583DE0EE66EB10EE66E64
:10020000C1EC0AF0E552E552E55200EE1FF00C0E8B
:10021000E80403E3E5CFEDFFFBD700EE13F0140E87
:10022000E80403E3E5CFEDFFFBD7E5CFFBFFE5CF28
:10023000FAFFE5CFF4FFE5CFF3FFE5CFF5FFE5CF1C
:10024000F8FFE5CFF7FFE5CFF6FFE5CFEAFFE5CF13
:10025000E9FFE5CFDAFF110093EC08F0FE0EDBCFEB
:10026000E6FF1FD8E5520F01136B1351FEE0B2CF2A
:10027000A6F0B3CFA7F0A6C014F0156A14BE156897
:1002800088EC08F014C0EEFF15C0EDFFA6C014F016
:10029000156A14BE156814C0F3FF15C0F4FF98EF7B
:1002A00008F093EC08F00F01136B1351FEE0FE0E03
:1002B000DB38F00BB36EB26A136B1351FEE098EFAC
:1002C00008F093EC08F00F01456B900E446F010E9F
:1002D000436FFE0EDB500E0A12E0030A16E0010A1D
:1002E00008E0070A12E16FEC08F0180EEE6EF60E49
:1002F00011D06FEC08F0670EEE6EF00E0BD06FECC5
:1003000008F04F0EEE6EF40E05D06FEC08F0E80E1C
:10031000EE6EFD0EED6EFE0EDB50020807E1020EE2
:10032000436F6FEC08F0F30EEE6EED68388192804B
:1003300038839282C08EC70EC0140809C06EF80EB2
:10034000C0140209C06EC194C192830EC214000988
:10035000C26EC2809D8CB190B182B36AB26AF36AF8
:10036000F46A98EF08F093EC08F0020EE126B2CFA1
:10037000A8F0B3CFA9F0A8C016F0176A16BE176888
:1003800088EC08F01650EE5C146E1750EE5814C04E
:10039000DEFFDD6EDECF14F0DDCF15F0000E145C55
:1003A000000E155802E2DE6ADD6ADF1C8C6EDECFBD
:1003B00014F0DDCF15F014C0F3FF15C0F4FF020EEA
:1003C000E15C02E2E16AE552E16E98EF08F0D9CF14
:1003D000E6FFE1CFD9FF040EE1268A6ADE6ADE6A13
:1003E000DE6ADD6ADD52DD52DECF07F0DECF08F0D7
:1003F000DECF09F0DDCF0AF0DD52DD520A34000E07
:100400000A1809E6D880500E0754C30E0854000E8F
:100410000954000E0A540BE30400D9CFE9FFDACFE8
:10042000EAFFEE2A000EEE22EE22EE22DDD78A8AC5
:10043000DE6ADE6ADE6ADD6ADD52DD52DECF07F09B
:10044000DECF08F0DECF09F0DDCF0AF0DD52DD525D
:100450000A34000E0A1809E6D880500E0754C30E5D
:100460000854000E0954000E0A540BE30400D9CFBF
:10047000E9FFDACFEAFFEE2A000EEE22EE22EE22AC
:10048000DDD78A9A8A88DE6ADE6ADE6ADD6ADD5234
:10049000DD52DECF07F0DECF08F0DECF09F0DDCF92
:1004A0000AF0DD52DD520A34000E0A1809E6D8803F
:1004B000500E0754C30E0854000E0954000E0A547F
:1004C0000BE30400D9CFE9FFDACFEAFFEE2A000EF2
:1004D000EE22EE22EE22DDD78A988A8EDE6ADE6A6E
:1004E000DE6ADD6ADD52DD52DECF07F0DECF08F0D6
:1004F000DECF09F0DDCF0AF0DD52DD520A34000E06
:100500000A1809E6D880500E0754C30E0854000E8E
:100510000954000E0A540BE30400D9CFE9FFDACFE7
:10052000EAFFEE2A000EEE22EE22EE22DDD78A9EB0
:100530008A8CDE6ADE6ADE6ADD6ADD52DD52DECF7B
:1005400007F0DECF08F0DECF09F0DDCF0AF0DD5294
:10055000DD520A34000E0A1809E6D880500E0754FE
:10056000C30E0854000E0954000E0A540BE3040095
:10057000D9CFE9FFDACFEAFFEE2A000EEE22EE2213
:10058000EE22DDD78A9C040EE15C02E2E16AE552CC
:10059000E16EE552E7CFD9FF120093EC08F0020EAE
:1005A000E126DF6A010EDB6A080EF36E010EDBCF77
:1005B000F4FFF350F45C13E2FE0EDBCFE6FF010E16
:1005C000F36EDB5004E0D890F336E806FCE1F3501C
:1005D000E552E71401E0DF2A010EDB2AE5D7DF5000
:1005E000146E020EE15C02E2E16AE552E16E145023
:1005F00098EF08F0D9CFE6FFE1CFD9FF040EE1264E
:10060000DE68DD68FB0EDBCF08F0FC0EDBCF09F007
:10061000020E08C0DBFF030E09C0DBFF0400020E60
:10062000DBCF14F0DB06030EDBCF15F001E2DB06B7
:10063000145015104AE0DECF16F0DDCF17F0FF0E94
:100640001616000E171616C017F0166A460E186E0C
:10065000110E196E000E1A6EDECF1EF0DDCF1FF0E8
:100660001FC01EF01F6AFD0EDBCFE9FFDB2AFE0E66
:10067000DBCFEAFF01E3DB2AEF5000011E181B6EFF
:100680001FC01CF0FF0E1B16000E1C161D6AD89012
:100690001B361C361D3618501B24F36E19501C20B7
:1006A000F46E1A501D20F86EF4CFF7FFF3CFF6FF6B
:1006B0000900F5501618146E0900F5501718156E3C
:1006C00014C0DEFF15C0DDFFAAD70400DECF14F092
:1006D000DDCF15F014C0F3FF15C0F4FF00D0040EF9
:1006E000E15C02E2E16AE552E16EE552E7CFD9FF53
:1006F0001200D9CFE6FFE1CFD9FF070EE1260F01A7
:10070000066B076B0F01086B096B0F010A6B0B6B14
:100710000F010C6B0D6BDE6ADD6ADECF14F0DDCFEE
:1007200015F0400E145C000E155801E32ED1DECFFB
:10073000E9FFDDCFEAFF000EE926090EEA22EF50BD
:100740000F0117250F01176F000E0F0118210F0160
:10075000186FDECFE9FFDDCFEAFF000EE926090EB4
:10076000EA22020EEFCFDBFF020EDBCFE6FF15DF42
:10077000E552146E156A14500F01062715500F012B
:10078000072332EC0BF0DECFE6FFDDCFE6FF57ECC0
:100790000AF0E552E552E76E030EE7CFDBFF030EEA
:1007A000DBCFE6FFFADEE552146E156A14500F0136
:1007B000082715500F01092332EC0BF0DECF14F09F
:1007C000DDCF15F0400E1426000E152214C0E6FFF2
:1007D00015C0E6FF57EC0AF0E552E552E76E040E4D
:1007E000E7CFDBFF040EDBCFE6FF030EDBCFE6FF38
:1007F000020EDB50E552E718E552E710E76E040EF3
:10080000E7CFDBFF040EDBCFE6FFC7DEE552146E59
:10081000156A14500F010A2715500F010B23040EFF
:10082000DB1C146EDECFE9FFDDCFEAFF000EE92608
:10083000090EEA22EF501414E66EDECFE9FFDDCF99
:10084000EAFF400EE926090EEA22E552E750EF6E74
:10085000DECFE9FFDDCFEAFF400EE926090EEA22EE
:10086000EF50E66E9ADEE552146E156A14500F01D1
:100870000C2715500F010D23FE0EDB5046E132EC24
:100880000BF0020EDBCFE6FFDECFE6FFDDCFE6FFAB
:1008900027EC0AF0E552E552E55232EC0BF0040E7B
:1008A000DBCFE6FFDECF14F0DDCF15F0400E1426CF
:1008B000000E152214C0E6FF15C0E6FF27EC0AF073
:1008C000E552E552E55232EC0BF0DECFE9FFDDCF29
:1008D000EAFF400EE926090EEA22EF50E66EDECF6F
:1008E00014F0DDCF15F0400E1426000E1522400E38
:1008F0001426000E152214C0E6FF15C0E6FF27ECF3
:100900000AF0E552E552E5523AD032EC0BF0020E15
:10091000DBCFE6FFDECFE6FFDDCFE6FF27EC0AF018
:10092000E552E552E55232EC0BF0E66ADECF14F008
:10093000DDCF15F0400E1426000E152214C0E6FF80
:1009400015C0E6FF27EC0AF0E552E552E55232EC1D
:100950000BF0E66ADECF14F0DDCF15F0400E142662
:10096000000E1522400E1426000E152214C0E6FFBC
:1009700015C0E6FF27EC0AF0E552E552E552040007
:10098000DF2A010E01E3DB2AC8D6400EE66EE66AD6
:10099000000EE66E090EE66E2DDEE552E552E552DA
:1009A000E552F3CF04FFF4CF05FFFD0EDB5010E05E
:1009B000400EE66EE66A400EE66E090EE66E1ADE40
:1009C000E552E552E552E552F3CF04FFF4CF05FFBF
:1009D000FE0EDB5003E00F01046B056BD950050FD1
:1009E000E96EDACFEAFF040EEE6E0F0EED6EDE6AF0
:1009F000DD6ADECF14F0DDCF15F00A0E145C000EB8
:100A000015582BE232EC0BF0050EDBCFE9FFDB2AA9
:100A1000060EDBCFEAFF01E3DB2AEF50E66EDECF06
:100A200014F0DDCF15F0400E1426000E1522400EF6
:100A30001426000E1522400E1426000E152214C096
:100A4000E6FF15C0E6FF27EC0AF0E552E552E55255
:100A5000DF2A010E01E3DB2ACCD704CFF3FF05CF59
:100A6000F4FF00D0070EE15C02E2E16AE552E16EBC
:100A7000E552E7CFD9FF12008CEC0AF0800ED88047
:100A8000F3543E0EF45401E20C0C0A0CD9CFE6FFED
:100A9000E1CFD9FF2E0EE126DE6ADD6A020EDB6AA7
:100AA000030EDB6A040EDB6A010EF36E050EF3CF54
:100AB000DBFF060EDB6A010EF36E070EF3CFDBFFE2
:100AC000080EDB6A010EF36E090EF3CFDBFF0A0E90
:100AD000DB6A010EF36E0B0EF3CFDBFF320EF36E0B
:100AE0000C0EF3CFDBFF0D0EDB6A320EF36E0E0E33
:100AF000F3CFDBFF0F0EDB6A320EF36E100EF3CF77
:100B0000DBFF110EDB6A320EF36E120EF3CFDBFF4A
:100B1000130EDB6A140EDB6A150EDB6A160EDB6A37
:100B2000170EDB6A180EDB6A190EDB6A1A0EDB6A17
:100B30001B0EDB6A010EF36E1E0EF3CFDBFF1F0EE2
:100B4000DB6A010EF36E200EF3CFDBFF210EDB6AB2
:100B5000010EF36E220EF3CFDBFF230EDB6A010ED4
:100B6000F36E240EF3CFDBFF250EDB6A9268936AE7
:100B7000946A956A966A8B688C6A720ED36EC00E00
:100B80009B6E9F0EE66EDDEC0AF0E552DE0EE66E21
:100B9000B10EE66EC1EC0AF0E552E5523F0EE66E8C
:100BA000100EE66EF2EC09F0E552E552BC0EE66E70
:100BB000F9EC0AF0E5529F92B80EBC6E9294D08E7A
:100BC000F28EE66AE66A95DDE552E552F3CF14F05F
:100BD000F4CF15F014C0E6FF15C0E6FF85EC0AF06F
:100BE000E552E5528CEC0AF0F3CF00FF8CEC0AF0F2
:100BF000F3CF01FF8CEC0AF0F3CF02FF8CEC0AF08C
:100C0000F3CF03FF8A9A8A988A9E8A9CE7EC01F0C8
:100C1000F28C0001606B60C0E6FF0B0EE66E61ECCB
:100C200001F0E552E55260C0E6FF2CEC01F0E55220
:100C3000260EF3CFDBFF270EF4CFDBFF140EDBCF46
:100C400014F0DB2A150EDBCF15F001E3DB2A0C0EC6
:100C5000DBCF16F00D0EDBCF17F01650145C1750DB
:100C6000155862E3D950240FE96EDACFEAFFEE504F
:100C7000ED1013E00F01032B0F010351146E156AE1
:100C8000D890155004E6FF0E145C000E155804E3CE
:100C9000240EDB6A250EDB6A0DD00F0103070F015E
:100CA0000351010807E3010EF36E240EF3CFDBFFBF
:100CB000250EDB6A140EDB6A150EDB6A040EDBCF31
:100CC00014F0DB2A050EDBCF15F001E3DB2A800EE2
:100CD000D8801454000E155427E2040EDB6A050E6A
:100CE000DB6A8CEC0AF0F3CF16F0F4CF17F016C0E5
:100CF000E6FF17C0E6FFC0DEE552E7CF17F0E5528A
:100D0000E7CF16F0186E185016C014F017C015F083
:100D100005E0D89015321432E804FBE10C0E14C043
:100D2000DBFF0D0E15C0DBFF160EDBCF14F0DB2A48
:100D3000170EDBCF15F001E3DB2A0E0EDBCF16F02A
:100D40000F0EDBCF17F01650145C1750155862E3E6
:100D5000D9501E0FE96EDACFEAFFEE50ED1013E026
:100D60000F01002B0F010051146E156AD890155019
:100D700004E6FF0E145C000E155804E31E0EDB6A39
:100D80001F0EDB6A0DD00F0100070F010051010893
:100D900007E3010EF36E1E0EF3CFDBFF1F0EDB6ABF
:100DA000160EDB6A170EDB6A060EDBCF14F0DB2AA9
:100DB000070EDBCF15F001E3DB2A800ED880145438
:100DC000000E155427E2060EDB6A070EDB6A8CEC78
:100DD0000AF0F3CF16F0F4CF17F016C0E6FF17C0F5
:100DE000E6FF4ADEE552E7CF17F0E552E7CF16F00F
:100DF000186E185016C014F017C015F005E0D89002
:100E000015321432E804FBE10E0E14C0DBFF0F0EA6
:100E100015C0DBFF180EDBCF14F0DB2A190EDBCF79
:100E200015F001E3DB2A100EDBCF16F0110EDBCF3D
:100E300017F01650145C1750155862E3D950200F64
:100E4000E96EDACFEAFFEE50ED1013E00F01012B4F
:100E50000F010151146E156AD890155004E6FF0E6B
:100E6000145C000E155804E3200EDB6A210EDB6AC9
:100E70000DD00F0101070F010151010807E3010E19
:100E8000F36E200EF3CFDBFF210EDB6A180EDB6A58
:100E9000190EDB6A080EDBCF14F0DB2A090EDBCF5C
:100EA00015F001E3DB2A800ED8801454000E15548F
:100EB00027E2080EDB6A090EDB6A8CEC0AF0F3CF3E
:100EC00016F0F4CF17F016C0E6FF17C0E6FFD4DD2A
:100ED000E552E7CF17F0E552E7CF16F0186E18503D
:100EE00016C014F017C015F005E0D8901532143272
:100EF000E804FBE1100E14C0DBFF110E15C0DBFF90
:100F00001A0EDBCF14F0DB2A1B0EDBCF15F001E34A
:100F1000DB2A120EDBCF16F0130EDBCF17F01650C4
:100F2000145C1750155862E3D950220FE96EDACFDE
:100F3000EAFFEE50ED1013E00F01022B0F010251FA
:100F4000146E156AD890155004E6FF0E145C000E5E
:100F5000155804E3220EDB6A230EDB6A0DD00F0165
:100F600002070F010251010807E3010EF36E220E82
:100F7000F3CFDBFF230EDB6A1A0EDB6A1B0EDB6A84
:100F80000A0EDBCF14F0DB2A0B0EDBCF15F001E3EA
:100F9000DB2A800ED8801454000E155427E20A0E66
:100FA000DB6A0B0EDB6A8CEC0AF0F3CF16F0F4CFA1
:100FB00017F016C0E6FF17C0E6FF5EDDE552E7CF8B
:100FC00017F0E552E7CF16F0186E185016C014F05F
:100FD00017C015F005E0D89015321432E804FBE193
:100FE000120E14C0DBFF130E15C0DBFF2A0EDB6AE6
:100FF0002B0EDB6A2C0EDB6A2D0EDB6AD9502A0F12
:10100000E96EDACFEAFFD880FF0EEE54000EEE5400
:10101000000EEE54000EEE540CE30400D9502A0FDB
:10102000E96EDACFEAFFEE2A000EEE22EE22EE2281
:10103000E5D760C0E6FFB3EC01F0E5521C0EF3CF3C
:10104000DBFF1D0EF4CFDBFF8B7CD9501C0FE96E4C
:10105000DACFEAFF010ED880EE54000EED5413E211
:10106000040E086E096A1C0EDBCF0DF01D0EDBCFDF
:101070000EF0A3EC0AF006C012FF06C011FF06C076
:1010800010FF06C00FFF0001010E811901E182511E
:1010900018E18CEC0AF0F3CF00FF8CEC0AF0F3CFF0
:1010A00001FF8CEC0AF0F3CF02FF8CEC0AF0F3CFD7
:1010B00003FF0F01126912CF11FF12CF10FF12CFE1
:1010C0000FFF0400BBD507EC00F02E0EE15C02E23E
:1010D000E16AE552E16EE552E7CFD9FF1200FD0E5D
:1010E000EA6ADB34FE0BEA36E96E830EE926000E6F
:1010F000EA22120021D8610EE926000EEA22EECF84
:1011000022F0EFCF23F0200E225E000E235A1200B1
:10111000FE0EEA6ADB34FE0BEA36E96E610EE92662
:10112000000EEA221200D9CFE6FFE1CFD9FF12006C
:10113000E552E7CFD9FF1200A551E96EEA6AD890CF
:06114000E936EA36120058
:0A11460000002110422063308440B5
:10115000A550C660E770088129914AA16BB18CC186
:10116000ADD1CEE1EFF13112100273325222B552FD
:101170009442F772D662399318837BB35AA3BDD3D6
:101180009CC3FFF3DEE36224433420040114E664CD
:10119000C774A44485546AA54BB528850995EEE526
:1011A000CFF5ACC58DD55336722611163006D776DD
:1011B000F6669556B4465BB77AA719973887DFF776
:1011C000FEE79DD7BCC7C448E5588668A7784008A5
:1011D000611802282338CCC9EDD98EE9AFF94889C6
:1011E00069990AA92BB9F55AD44AB77A966A711A3D
:1011F000500A333A122AFDDBDCCBBFFB9EEB799B16
:10120000588B3BBB1AABA66C877CE44CC55C222C8C
:10121000033C600C411CAEED8FFDECCDCDDD2AAD65
:101220000BBD688D499D977EB66ED55EF44E133E1C
:10123000322E511E700E9FFFBEEFDDDFFCCF1BBFB5
:101240003AAF599F788F8891A981CAB1EBA10CD18F
:101250002DC14EF16FE18010A100C230E320045097
:10126000254046706760B9839893FBA3DAB33DC30A
:101270001CD37FE35EF3B1029012F322D2323542E7
:10128000145277625672EAB5CBA5A89589856EF59A
:101290004FE52CD50DC5E234C324A0148104667437
:1012A000476424540544DBA7FAB79987B8975FE7EA
:1012B0007EF71DC73CD7D326F2369106B016576687
:1012C0007676154634564CD96DC90EF92FE9C89972
:1012D000E9898AB9ABA94458654806782768C018D7
:1012E000E1088238A3287DCB5CDB3FEB1EFBF98B4A
:1012F000D89BBBAB9ABB754A545A376A167AF10A27
:10130000D01AB32A923A2EFD0FED6CDD4DCDAABD59
:101310008BADE89DC98D267C076C645C454CA23C76
:10132000832CE01CC10C1FEF3EFF5DCF7CDF9BAF29
:10133000BABFD98FF89F176E367E554E745E932EC6
:06134000B23ED10EF01ECA
:0A1346001E0EF66E000EF76E000E8C
:10135000F86E0F010900F550206F0900F550216F5C
:1013600003E1206701D03DD00900F5501B6F090053
:10137000F5501C6F0900F5501D6F09000900F5506C
:10138000E96E0900F550EA6E090009000900F55000
:101390001E6F0900F5501F6F09000900F6CF22FFEC
:1013A000F7CF23FFF8CF24FF1BCFF6FF1CCFF7FFAB
:1013B0001DCFF8FF0F011E5302E11F5307E0090084
:1013C000F550EE6E1E07F8E21F07F9D722CFF6FFA1
:1013D00023CFF7FF24CFF8FF0F012007000E215B7A
:0413E000BFD7120061
:0C13E400D9CFE6FFDACFE6FFE1CFD9FF5A
:1013F000E2CFDAFF0F010C0E546FFC0E4817DB50E2
:10140000300BE8380F0B481392980C0E481506E184
:10141000BA94FD0EDB50BB6EBA8413D00C0E481587
:10142000040806E15195FD0EDBCF52FF518509D02E
:101430000C0E4815080805E14A95FD0EDBCF4BFF61
:0E1440004A85E552E5CFDAFFE7CFD9FF12006B
:02144E00D9CFF4
:10145000E6FFDACFE6FFE1CFD9FFE2CFDAFFFD0EFC
:10146000DBCF15F015C014F0030E1514AA6EFF0E95
:10147000E76EFC0EDBCF14F0E7501416156A14501B
:10148000A96EFB0EDB50A86EA69EA69CA684F29EBB
:10149000550EA76EAA0EA76EA682A6B2FED7F28E32
:0E14A000A694E552E5CFDAFFE7CFD9FF1200A0
:0214AE00D9CF94
:1014B000E6FFDACFE6FFE1CFD9FFE2CFDAFFFC0E9D
:1014C000DBCF14F0FD0EDBCF15F015C014F0156A5C
:1014D000030E1414AA6EFF0EE76EFC0EDBCF14F0A1
:1014E000FD0EDBCF15F0E7501416156A1450A96EE7
:1014F000A69CA69EA68000000000A85000D0E55241
:0A150000E5CFDAFFE7CFD9FF1200B4
:06150A00FE0EE3CF25FFF9
:10151000FF0EE3CF26FF120026CF09F025CF08F0FB
:10152000350E0D6E450E0E6EA3EC0AF0062AE86A23
:101530000722079E07C026FF06C025FF25CFF3FF21
:0615400026CFF4FF1200AB
:0A15460008C012F008500D02F4CFA7
:1015500007F0F3CF06F009500E02F4CF09F0F3CFF5
:1015600008F00D02F3500726F4500822E86A092219
:1015700012500E02F3500726F4500822E86A09229E
:02158000000C5D
:0E158200D9CFE6FFDACFE6FFE1CFD9FFE2CF07
:10159000DAFFE652E652FC0EDBCFDEFFDBCFDDFFEB
:1015A000010EDB50D76EDF50D66EE552E552E552A4
:0A15B000E5CFDAFFE7CFD9FF120004
:0615BA00D9CFE6FFDACFF5
:1015C000E6FFE1CFD9FFE2CFDAFFFD0EDB507F0B64
:1015D000D56ED76AD66AF294FD0EDBAE02D0F28ADF
:1015E00001D0F29AD58EE552E5CFDAFFE7CFD9FFE9
:0215F0001200E7
:0E15F200D9CFE6FFDACFE6FFE1CFD9FFE2CF97
:10160000DAFFFD0EDB50FB0BBA6EBC6A9E92FD0E3C
:10161000DBAE02D09D8201D09D92BA84E552E5CF27
:08162000DAFFE7CFD9FF120049
:08162800380EF36E00EE00F035
:101630000F0E01D81200EA6002D0EE6AFCD7F35018
:08164000E9601200EE6AFCD71C
:081648001EEE00F02EEE00F092
:10165000F86A019CA3EC09F003EC00F046EC05F0FD
:04166000FBD71200A2
:06166400A6B2FED7120041
:06166A000F0F0F0F00003E
:1016700000000000000000000CFFFFFFFF00000062
:05168000000000000065
:020000040030CA
:0100010038C6
:010003002BD1
:01000500B941
:00000001FF
